:1000000034EF04F0F76A140FF66E000EF7220900C1
:10001000F55012003132333435363738392A30232F
:10002000436172726567616E646F202E00002E005E
:100030002E002E00466563686120506F7274612047
:100040002121000051747320706167696E61733AF9
:1000500000002300496E69636961646F212100001B
:100060005061672E2072657374616E7465733A0017
:10007000080E016E00D08B96949600D000002536B5
:100080008B98D8B09488D8A09498948682A6FED7EE
:10009000012EF0D700D08B9694960000948800D063
:1000A000000000D00000948682A6FED7016A00D02E
:1000B000000082B801808B9694968B9894981200D9
:1000C000948800D0948600D000008B98949800D03B
:1000D0008B9694960BC025F0CBDF23500C10246E2A
:1000E000256EC6DF94980000948682A6FED700D0C5
:1000F00000D00000948800D01200EA6A1B0EE96E5E
:10010000EF500DE0020E016E006A002EFED7012EA8
:10011000FBD7970E006E002EFED7EF2EF3D71200FE
:10012000000E0AB0010E211221C023F0C9DF2150B8
:100130000409226E236EC4DF00D02150FB0B226E17
:10014000236EBEDF200E006E002EFED700D0000012
:1001500012000A901B50F00B1C6E216EE1DF1B3861
:10016000006EF00E00160050F00B1C6E216ED8DFF2
:10017000120018C00BF0236AA3DF280E1B6EBDDF30
:10018000030E1B6EE6DF050E1B6EB7DF030E1B6E44
:10019000E0DF050E1B6EB1DF030E1B6EDADF050E0E
:1001A0001B6EABDF020E1B6ED4DF050E1B6EA5DFD0
:1001B000280E1B6ECEDF320E1B6E9FDF0C0E1B6EE9
:1001C000C8DF320E1B6E99DF010E1B6EC2DF320ECE
:1001D0001B6E93DF060E1B6EBCDF320E1B6E8DDFB7
:1001E00066EF04F067EF04F01950020A05E0010A17
:1001F0000AE0070A0FE015D0C00E1824FF0F1A6E90
:100200001B6EA7DF14D0940E1824FF0F1A6E1B6EFE
:10021000A0DF0DD0D40E1824FF0F1A6E1B6E99DFCD
:1002200006D0800E1824FF0F1A6E1B6E92DF12008C
:100230000A801F50F00B206E216E72DF1F38006E97
:10024000F00E00160050F00B206E216E69DF1200D8
:100250000900F5520CE0F6CF18F0F7CF19F0F5CF02
:100260001FF0E6DF18C0F6FF19C0F7FFF1D7120044
:10027000030E186E020E196EB7DF200EF66E000E1A
:10028000F76EE6DF640E1B6E38DF0E0E186E020E80
:10029000196EAADF2E0EF66E000EF76ED9DF640E11
:1002A0001B6E2BDF0F0E186E020E196E9DDF300EC7
:1002B000F66E000EF76ECCDF640E1B6E1EDF100EA6
:1002C000186E020E196E90DF320EF66E000EF76E8B
:1002D000BFDF640E1B6E11DF010E186E020E196E69
:1002E00083DF010E1B6E35DF640E1B6E06DF68EFC9
:1002F00004F0186A0D2A0D50210852E20F5005E053
:10030000010A07E0030A09E00BD0DE0E956E836E4A
:1003100007D0BE0E956E836E03D07E0E956E836EF3
:100320000AA209D083501E0B1E0804E10A920EC0D7
:1003300018F00E6A34D083501E0B1E082BE0835039
:10034000020B02E1196A11D08350040B03E1010E84
:10035000196E0BD08350080B03E1020E196E05D005
:100360008350100B02E1030E196E1950030DF35068
:100370001B6A1A6E036A0F501A24016E1B50032267
:100380000150F2CF1AF0F29E3DDE1ABEF28E0E6ED2
:100390000A8205D00F2A0F50030801E10F6A0D6A87
:1003A000FE0E956E18C001F079EF04F0006A016A44
:1003B0001F50D89020B000260032013220B2002613
:1003C0000032013220B400260032013220B600266D
:1003D0000032013220B800260032013220BA002655
:1003E0000032013220BC00260032013220BE00263D
:1003F0000032013268EF02F01D6A1B6A0A0E1C6EA1
:100400001A6A1850191003E1000E016EC1D01D5078
:100410001D2A036A1824E96E19500320EA6EEFCFF3
:100420001EF01E502D080DE1010E1B6E1D501D2AE1
:10043000036A1824E96E19500320EA6EEFCF1EF00C
:100440000DD01E502B080AE11D501D2A036A1824E6
:10045000E96E19500320EA6EEFCF1EF01E502F08F0
:10046000D8B08ED01E503908D8A08AD01E5030087F
:1004700021E1036A1D501824E96E19500320EA6E29
:10048000EF5078080AE0036A1D501824E96E1950ED
:100490000320EA6EEF5058080DE1100E1C6E1D2A65
:1004A0001D501D2A036A1824E96E19500320EA6EB4
:1004B000EFCF1EF01C500A081BE11E502F0817E258
:1004C0001E50390814E30A0E1F6E1AC020F06ED7B2
:1004D000300E1E5C01241A6E1D501D2A036A18245A
:1004E000E96E19500320EA6EEFCF1EF0E6D748D030
:1004F0001C50100845E11E50600806E21E507A08A4
:1005000003E31E50DF0B01D01E501E6E1E502F083D
:1005100003E21E50390806E21E50400831E21E5028
:1005200046082EE31E502F080CE21E50390809E33E
:100530001A381F6EF00E1F16300E1E5C1F241A6E26
:1005400009D01A381F6EF00E1F16410E1E5C0A0FDE
:100550001F241A6E1D501D2A036A1824E96E1950B3
:100560000320EA6EEFCF1EF01E50600806E21E5018
:100570007A0803E31E50DF0B01D01E501E6EC6D753
:100580001B2C04D01C500A0801E11A6C1AC001F09F
:10059000A6EF04F02050016A1F5C03E21FC000F0C8
:1005A0000CD0006A080E216E1F3600362050005C09
:1005B000D8B0006E0136212EF7D71200200E1AA8EF
:1005C000300E1B6E19C000F019AE08D0001E002AB4
:1005D00000C019F02D0E1B6E1A8E1A80015019C022
:1005E0001FF0640E206ED6DF00C019F0300E01241B
:1005F0001C6E19C01FF00A0E206ECCDF300E0024D6
:100600001E6E300E01241D6E1BC000F0300E1C5CEF
:1006100004E01A821ABE1A8412D01BC01CF0200EED
:100620001B6E300E1D5C04E01A801ABE1A8207D0C1
:10063000D8A41A8004E11CC01DF0200E1C6E1AB450
:1006400005D01AB206D01AB007D009D01BC01FF0CF
:10065000EFDD1CC01FF0ECDD1DC01FF0E9DD1EC08A
:100660001FF0E6DDDAEF04F0D00E186E81AE40D058
:10067000196A1950020816E3050E8E6E18C01BF099
:100680003CDD060E8E6E18C01BF037DD0A0E8E6E36
:1006900018C01BF032DD090E8E6E18C01BF02DDD68
:1006A000192AE7D7080E1A6EFA0E1B6E26DD1A2ECF
:1006B000FBD7060E8E6E18C01BF01FDD81BE16D054
:1006C000050E8E6E18C01BF018DD81BE0FD0090E0E
:1006D0008E6E18C01BF011DD81BE08D00A0E8E6E22
:1006E00018C01BF00ADD81BE01D0E3D71FD01DD09A
:1006F000060E8E6E18C01BF000DD81BE16D0050EF2
:100700008E6E18C01BF0F9DC81BE0FD0090E8E6E04
:1007100018C01BF0F2DC81BE08D00A0E8E6E18C025
:100720001BF0EBDC81BE01D0E3D7A0D7080E1A6E18
:10073000FA0E1B6EE2DC1A2EFBD7DBEF04F0E80E9C
:10074000186E060E896E18C01BF0D7DC81B616D065
:10075000050E896E18C01BF0D0DC81B60FD0090ED3
:10076000896E18C01BF0C9DC81B608D00A0E896EEC
:1007700018C01BF0C2DC81B601D0E3D7020E196E9F
:10078000FA0E1B6EBADC192EFBD78A84040E196E82
:10079000FA0E1B6EB2DC192EFBD7050E896E18C03F
:1007A0001BF0ABDC81B816D0060E896E18C01BF0AA
:1007B000A4DC81B80FD00A0E896E18C01BF09DDC36
:1007C00081B808D0090E896E18C01BF096DC81B87C
:1007D00001D0E3D7040E196EFA0E1B6E8EDC192EB3
:1007E000FBD78A94040E196EFA0E1B6E86DC192E46
:1007F000FBD7100E8E6E18C01BF07FDC300E8E6E95
:1008000018C01BF07ADC200E8E6E080E196EFA0EE0
:100810001B6E73DC192EFBD7060E896E18C01BF0F9
:100820006CDC050E896E18C01BF067DC300E8E6E16
:1008300018C01BF062DC100E8E6E18C01BF05DDC61
:10084000DCEF04F0010E1B6E84DC640E1B6E55DCC5
:10085000040E186E020E196EC7DC340EF66E000E12
:10086000F76EF6DCE0EF04F0F86AD09E700ED36EFF
:10087000D3507E960C0EAF6EA20EAC6E900EAB6E89
:10088000080E0C6E106A156A166A0F01596B586BC8
:100890005A6B5B6B5C6B5D6B5E6B5F6BC150C00BCF
:1008A0000F09C16E070EB46E0A92046A056A0D6ADA
:1008B0000A920E6A0F6A8A6A8C6A8B6AC00E926EFE
:1008C000000E976E4E0E186E000153D48BD4D0D408
:1008D000020E186E196E88DC440EF66E000EF76E6E
:1008E000B7DC0E0E186E020E196E7EDC165234E165
:1008F00000D501C010F010521FE010502A081CE073
:10090000000E036E520E105C02E1035215E015500A
:10091000030812E310C01FF08BDC036A1550110F9F
:10092000E96E000E0320EA6E10C0EFFF106A152A70
:10093000FA0E1B6E7DEC00F0010E1B6E7DEC00F0DC
:1009400081AA09D0196A110E186E56D501C016F089
:10095000165201E001D0CAD781AC31D0010E1B6E16
:10096000A9EC00F0640E1B6E7DEC00F0070E186E13
:10097000020E196E39DC540EF66E000EF76E68DC4E
:10098000010E186E030E196E2FDC600EF66E000E4F
:10099000F76E5EDC176A1650175C10E2110E186EC7
:1009A000030E196E21DC1750165C186E196E180EA6
:1009B0001A6E04D659D6C3D6172AEDD701D042D71E
:0409C00095D70300C4
:020000040030CA
:0E00000000C8181EC3058100010000000100A9
:00000001FF
;PIC18F6490
;CRC=9F5C  CREATED="27-nov-20 20:45"
