:1000000018EF01F0436172726567616E646F202EB4
:1000100000002E002E002E00202020202020202056
:100020002020202020202020202020200000436CA1
:100030006971756520656D20696E6963696172001B
:1000400020202020202020202020202020202020B0
:10005000202020200000466563686120506F727484
:100060006100080E016E00D08A92939200D00000C9
:1000700010368A90D8B09380D8A09390938281A2B2
:10008000FED7012EF0D700D08A9293920000938081
:1000900000D0000000D00000938281A2FED7016A48
:1000A00000D0000081B001808A9293928A90939050
:1000B0001200938000D0938200D000008A90939029
:1000C00000D08A92939207C010F0CBDF0E50081038
:1000D0000F6E106EC6DF93900000938281A2FED750
:1000E00000D000D00000938000D01200EA6A0B0E0E
:1000F000E96EEF500DE0020E016E006A002EFED791
:10010000012EFBD7970E006E002EFED7EF2EF3D7F1
:100110001200000E06B0010E0C120CC00EF0C9DF6A
:100120000C5004090D6E0E6EC4DF00D00C50FB0B9A
:100130000D6E0E6EBEDF200E006E002EFED700D0BC
:100140000000120006900A50F00B0B6E0C6EE1DFFF
:100150000A38006EF00E00160050F00B0B6E0C6E9D
:10016000D8DF120009C007F00E6AA3DF280E0B6E5D
:10017000BDDF030E0A6EE6DF050E0B6EB7DF030E62
:100180000A6EE0DF050E0B6EB1DF030E0A6EDADFDA
:10019000050E0B6EABDF020E0A6ED4DF050E0B6E82
:1001A000A5DF280E0A6ECEDF320E0B6E9FDF0C0E1F
:1001B0000A6EC8DF320E0B6E99DF010E0A6EC2DFC7
:1001C000320E0B6E93DF060E0A6EBCDF320E0B6E24
:1001D0008DDF32EF01F0E80E096E010E8C6E09C062
:1001E0000BF084DF030E8C6E09C00BF07FDF020E74
:1001F0008C6E080E0A6EFA0E0B6E78DF0A2EFBD795
:10020000926A060E896E09C00BF070DF926A050EC5
:10021000896E09C00BF06ADF030E8C6E09C00BF00B
:1002200065DF010E8C6E09C00BF060DF37EF01F067
:10023000F86AD09E700ED36ED350080E086EC1506F
:10024000C00B0F09C16E070EB46E046A056A8A6A94
:100250008C6A8B6A780E936E000E946E956E4E0EBD
:10026000096E80D781AA03D081AC01D0B4D7C80E63
:080270000B6E3CDFF7D7030021
:020000040030CA
:0E0000003FC8381E0007A1000FC00FE00F40E0
:00000001FF
;PIC18F4550
;CRC=28D4  CREATED="23-nov-20 00:14"
