:1000000010EF02F0436172726567616E646F202EBB
:1000100000002E002E002E00202020202020202056
:100020002020202020202020202020200000436CA1
:100030006971756520656D20696E6963696172001B
:1000400020202020202020202020202020202020B0
:10005000202020200000466563686120506F727484
:10006000610050617373616E646F20706167696EC7
:10007000610020202020202020202020202020205F
:100080002020202020200000496E69636961646F90
:100090000000080E016E00D08A92939200D00000FA
:1000A00013368A90D8B09380D8A09390938281A27F
:1000B000FED7012EF0D700D08A9293920000938051
:1000C00000D0000000D00000938281A2FED7016A18
:1000D00000D0000081B001808A9293928A90939020
:1000E0001200938000D0938200D000008A909390F9
:1000F00000D08A92939207C013F0CBDF1150081002
:10010000126E136EC6DF93900000938281A2FED719
:1001100000D000D00000938000D01200EA6A0B0EDD
:10012000E96EEF500DE0020E016E006A002EFED760
:10013000012EFBD7970E006E002EFED7EF2EF3D7C1
:100140001200000E06B0010E0F120FC011F0C9DF31
:100150000F500409106E116EC4DF00D00F50FB0B5E
:10016000106E116EBEDF200E006E002EFED700D086
:100170000000120006900D50F00B0E6E0F6EE1DFC6
:100180000D38006EF00E00160050F00B0E6E0F6E64
:10019000D8DF120009C007F0116AA3DF280E0B6E2A
:1001A000BDDF030E0D6EE6DF050E0B6EB7DF030E2F
:1001B0000D6EE0DF050E0B6EB1DF030E0D6EDADFA4
:1001C000050E0B6EABDF020E0D6ED4DF050E0B6E4F
:1001D000A5DF280E0D6ECEDF320E0B6E9FDF0C0EEC
:1001E0000D6EC8DF320E0B6E99DF010E0D6EC2DF91
:1001F000320E0B6E93DF060E0D6EBCDF320E0B6EF1
:100200008DDF29EF02F00B50020A05E0010A0AE037
:10021000070A0FE015D0C00E0A24FF0F0C6E0D6EFA
:10022000A9DF14D0940E0A24FF0F0C6E0D6EA2DF0E
:100230000DD0D40E0A24FF0F0C6E0D6E9BDF06D07E
:10024000800E0A24FF0F0C6E0D6E94DF12000680E4
:100250000C50F00B0D6E0F6E74DF0C38006EF00E4C
:1002600000160050F00B0D6E0F6E6BDF42EF01F0C9
:100270000900F5520CE0F6CF0AF0F7CF0BF0F5CFFE
:100280000CF0E5D70AC0F6FF0BC0F7FFF1D712005C
:10029000020E0A6E0B6EB7DF040EF66E000EF76EDE
:1002A000E7DF020E096E960E0B6E38DF092EFBD7C4
:1002B0000E0E0A6E020E0B6EA6DF120EF66E000E0A
:1002C000F76ED6DF020E096E960E0B6E27DF092E33
:1002D000FBD70F0E0A6E020E0B6E95DF140EF66E34
:1002E000000EF76EC5DF020E096E960E0B6E16DF5E
:1002F000092EFBD7100E0A6E020E0B6E84DF160E4F
:10030000F66E000EF76EB4DF020E096E960E0B6EDF
:1003100005DF092EFBD7010E0A6E020E0B6E73DF8E
:10032000180EF66E000EF76EA3DF020E0A6E0B6E4D
:100330006ADF2E0EF66E000EF76E9ADF2AEF02F0DD
:10034000E80E096E010E0D6E15DF020E0A6E0B6EC1
:100350005ADF620EF66E000EF76E8ADF926A060EA4
:10036000896E09C00BF0DADE81B619D0926A050EEB
:10037000896E09C00BF0D2DE81B611D0926A090EE7
:10038000896E09C00BF0CADE81B609D0926A0A0EE6
:10039000896E09C00BF0C2DE81B601D0DFD7020E34
:1003A0000A6EFA0E0B6EBADE0A2EFBD78A84040E92
:1003B0000A6EFA0E0B6EB2DE0A2EFBD7926A050E9B
:1003C000896E09C00BF0AADE81B819D0926A060EB8
:1003D000896E09C00BF0A2DE81B811D0926A0A0EB4
:1003E000896E09C00BF09ADE81B809D0926A090EB5
:1003F000896E09C00BF092DE81B801D0DFD7040E00
:100400000A6EFA0E0B6E8ADE0A2EFBD78A94140E41
:100410000A6EFA0E0B6E82DE0A2EFBD741EF02F057
:10042000F86AD09E700ED36ED350080E086EC1507D
:10043000C00B0F09C16E070EB46E046A056A8A6AA2
:100440008C6A8B6A780E936E000E946E4E0E096E57
:10045000A1D61ED781AA15D081AC13D0020E0A6E88
:100460000B6ED1DE720EF66E000EF76E01DF020E1D
:100470000A6E0B6EC8DE880EF66E000EF76EF8DEA2
:0C0480005FD7C80E0B6E4ADEE5D7030004
:020000040030CA
:0E0000003FC8381E0007A1000FC00FE00F40E0
:00000001FF
;PIC18F4550
;CRC=A1AF  CREATED="22-nov-20 22:55"
