:10000000F3EF03F0F76A140FF66E000EF722090003
:10001000F55012003132333435363738392A30232F
:10002000436172726567616E646F202E00002E005E
:100030002E002E00466563686120506F7274612047
:100040002121000051747320706167696E61733AF9
:1000500000002300496E69636961646F212100001B
:100060005061672E2072657374616E7465733A0017
:10007000080E016E00D08B96949600D000002536B5
:100080008B98D8B09488D8A09498948682A6FED7EE
:10009000012EF0D700D08B9694960000948800D063
:1000A000000000D00000948682A6FED7016A00D02E
:1000B000000082B801808B9694968B9894981200D9
:1000C000948800D0948600D000008B98949800D03B
:1000D0008B9694960BC025F0CBDF23500C10246E2A
:1000E000256EC6DF94980000948682A6FED700D0C5
:1000F00000D00000948800D01200EA6A1B0EE96E5E
:10010000EF500DE0020E016E006A002EFED7012EA8
:10011000FBD7970E006E002EFED7EF2EF3D71200FE
:10012000000E0AB0010E211221C023F0C9DF2150B8
:100130000409226E236EC4DF00D02150FB0B226E17
:10014000236EBEDF200E006E002EFED700D0000012
:1001500012000A901B50F00B1C6E216EE1DF1B3861
:10016000006EF00E00160050F00B1C6E216ED8DFF2
:10017000120018C00BF0236AA3DF280E1B6EBDDF30
:10018000030E1B6EE6DF050E1B6EB7DF030E1B6E44
:10019000E0DF050E1B6EB1DF030E1B6EDADF050E0E
:1001A0001B6EABDF020E1B6ED4DF050E1B6EA5DFD0
:1001B000280E1B6ECEDF320E1B6E9FDF0C0E1B6EE9
:1001C000C8DF320E1B6E99DF010E1B6EC2DF320ECE
:1001D0001B6E93DF060E1B6EBCDF320E1B6E8DDFB7
:1001E00025EF04F026EF04F01950020A05E0010A99
:1001F0000AE0070A0FE015D0C00E1824FF0F1A6E90
:100200001B6EA7DF14D0940E1824FF0F1A6E1B6EFE
:10021000A0DF0DD0D40E1824FF0F1A6E1B6E99DFCD
:1002200006D0800E1824FF0F1A6E1B6E92DF12008C
:100230000A801F50F00B206E216E72DF1F38006E97
:10024000F00E00160050F00B206E216E69DF1200D8
:100250000900F5520CE0F6CF18F0F7CF19F0F5CF02
:100260001FF0E6DF18C0F6FF19C0F7FFF1D7120044
:10027000186A0D2A0D50210852E20F5005E0010ABC
:1002800007E0030A09E00BD0DE0E956E836E07D0FF
:10029000BE0E956E836E03D07E0E956E836E0AA29F
:1002A00009D083501E0B1E0804E10A920EC018F0FC
:1002B0000E6A34D083501E0B1E082BE08350020BB5
:1002C00002E1196A11D08350040B03E1010E196E8B
:1002D0000BD08350080B03E1020E196E05D083503A
:1002E000100B02E1030E196E1950030DF3501B6A37
:1002F0001A6E036A0F501A24016E1B50032201501C
:10030000F2CF1AF0F29E7EDE1ABEF28E0E6E0A82D6
:1003100005D00F2A0F50030801E10F6A0D6AFE0E87
:10032000956E18C001F03DEF04F0006A016A1F509D
:10033000D89020B000260032013220B200260032D0
:10034000013220B400260032013220B600260032ED
:10035000013220B800260032013220BA00260032D5
:10036000013220BC00260032013220BE00260032BD
:10037000013227EF02F01D6A1B6A0A0E1C6E1A6A10
:100380001850191003E1000E016EC1D01D501D2A36
:10039000036A1824E96E19500320EA6EEFCF1EF0AD
:1003A0001E502D080DE1010E1B6E1D501D2A036A03
:1003B0001824E96E19500320EA6EEFCF1EF00DD01D
:1003C0001E502B080AE11D501D2A036A1824E96EED
:1003D00019500320EA6EEFCF1EF01E502F08D8B040
:1003E0008ED01E503908D8A08AD01E50300821E186
:1003F000036A1D501824E96E19500320EA6EEF506D
:1004000078080AE0036A1D501824E96E1950032089
:10041000EA6EEF5058080DE1100E1C6E1D2A1D509B
:100420001D2A036A1824E96E19500320EA6EEFCFE3
:100430001EF01C500A081BE11E502F0817E21E5028
:10044000390814E30A0E1F6E1AC020F06ED7300E62
:100450001E5C01241A6E1D501D2A036A1824E96EC1
:1004600019500320EA6EEFCF1EF0E6D748D01C509B
:10047000100845E11E50600806E21E507A0803E3AA
:100480001E50DF0B01D01E501E6E1E502F0803E2BF
:100490001E50390806E21E50400831E21E50460840
:1004A0002EE31E502F080CE21E50390809E31A38BB
:1004B0001F6EF00E1F16300E1E5C1F241A6E09D020
:1004C0001A381F6EF00E1F16410E1E5C0A0F1F24F5
:1004D0001A6E1D501D2A036A1824E96E1950032054
:1004E000EA6EEFCF1EF01E50600806E21E507A083A
:1004F00003E31E50DF0B01D01E501E6EC6D71B2C0F
:1005000004D01C500A0801E11A6C1AC001F068EF0F
:1005100004F02050016A1F5C03E21FC000F00CD001
:10052000006A080E216E1F3600362050005CD8B0DD
:10053000006E0136212EF7D71200200E1AA8300EB9
:100540001B6E19C000F019AE08D0001E002A00C0B2
:1005500019F02D0E1B6E1A8E1A80015019C01FF053
:10056000640E206ED6DF00C019F0300E01241C6E20
:1005700019C01FF00A0E206ECCDF300E00241E6E54
:10058000300E01241D6E1BC000F0300E1C5C04E018
:100590001A821ABE1A8412D01BC01CF0200E1B6EC9
:1005A000300E1D5C04E01A801ABE1A8207D0D8A44F
:1005B0001A8004E11CC01DF0200E1C6E1AB405D078
:1005C0001AB206D01AB007D009D01BC01FF030DE17
:1005D0001CC01FF02DDE1DC01FF02ADE1EC01FF044
:1005E00027DE9AEF04F0D00E186E81AE40D0196A63
:1005F0001950020816E3050E8E6E18C01BF07DDD43
:10060000060E8E6E18C01BF078DD0A0E8E6E18C0B6
:100610001BF073DD090E8E6E18C01BF06EDD192AFB
:10062000E7D7080E1A6EFA0E1B6E67DD1A2EFBD77F
:10063000060E8E6E18C01BF060DD81BE16D0050E52
:100640008E6E18C01BF059DD81BE0FD0090E8E6E64
:1006500018C01BF052DD81BE08D00A0E8E6E18C085
:100660001BF04BDD81BE01D0E3D71FD01DD0060E9D
:100670008E6E18C01BF041DD81BE16D0050E8E6E49
:1006800018C01BF03ADD81BE0FD0090E8E6E18C067
:100690001BF033DD81BE08D00A0E8E6E18C01BF031
:1006A0002CDD81BE01D0E3D7A0D7080E1A6EFA0E5A
:1006B0001B6E23DD1A2EFBD79BEF04F0E80E186E9D
:1006C000060E896E18C01BF018DD81B616D0050E17
:1006D000896E18C01BF011DD81B60FD0090E896E2E
:1006E00018C01BF00ADD81B608D00A0E896E18C04A
:1006F0001BF003DD81B601D0E3D7020E196EFA0EAE
:100700001B6EFBDC192EFBD78A84040E196EFA0EC1
:100710001B6EF3DC192EFBD7050E896E18C01BF07B
:10072000ECDC81B816D0060E896E18C01BF0E5DC33
:1007300081B80FD00A0E896E18C01BF0DEDC81B8BC
:1007400008D0090E896E18C01BF0D7DC81B801D023
:10075000E3D7040E196EFA0E1B6ECFDC192EFBD7F1
:100760008A94040E196EFA0E1B6EC7DC192EFBD785
:10077000100E8E6E18C01BF0C0DC300E8E6E18C0CE
:100780001BF0BBDC200E8E6E080E196EFA0E1B6E6F
:10079000B4DC192EFBD7060E896E18C01BF0ADDC39
:1007A000050E896E18C01BF0A8DC300E8E6E18C0C6
:1007B0001BF0A3DC100E8E6E18C01BF09EDC9CEFAD
:1007C00004F0010E1B6EC5DC640E1B6E96DC040E7D
:1007D000186E020E196E08DD340EF66E000EF76EFE
:1007E00037DDA0EF04F0F86AD09E700ED36ED350C0
:1007F0007E960C0EAF6EA20EAC6E900EAB6E080E17
:100800000C6E106A156A166A0F01596B586B5A6B99
:100810005B6B5C6B5D6B5E6B5F6BC150C00B0F09FC
:10082000C16E070EB46E0A92046A056A0D6A0A92D6
:100830000E6A0F6A8A6A8C6A8B6AC00E926E000E0C
:10084000976E4E0E186E000194D4CCD4010E1B6E20
:1008500080DC640E1B6E51DC020E186E196EC4DC57
:10086000440EF66E000EF76EF3DC0E0E186E020EDE
:10087000196EBADC165232E1FBD401C010F01052EE
:100880001EE010502A081BE0000E036E520E105C92
:1008900002E1035214E01550030811E310C01FF0E9
:1008A000C7DC036A1550110FE96E000E0320EA6ED3
:1008B00010C0EFFF106A152AFA0E1B6E1EDC010E27
:1008C0001B6E1BDC81AA09D0196A110E186E53D554
:1008D00001C016F0165201E001D0CCD781AC2FD068
:1008E000010E1B6E36DC640E1B6E07DC070E186EE5
:1008F000020E196E79DC540EF66E000EF76EA8DC4F
:10090000010E186E030E196E6FDC600EF66E000E8F
:10091000F76E9EDC176A1650175C10E2110E186E07
:10092000030E196E61DC1750165C186E196E180EE6
:100930001A6E03D658D6C2D6172AEDD701D041D7A2
:0409400099D7030040
:020000040030CA
:0E00000000C8181EC3058100010000000100A9
:00000001FF
;PIC18F6490
;CRC=0A8E  CREATED="27-nov-20 00:20"
