:10000000D8EF01F0436172726567616E646F202EF4
:1000100000002E002E002E00436C6971756520656E
:100020006D20696E6963696172005061726120467A
:1000300072656E7465005061726120547261730064
:1000400050617373616E646F20706167696E6100E7
:10005000496E69636961646F000046656368612089
:10006000506F72746100EA6A0B0EE96EEF500DE09A
:10007000020E016E006A002EFED7012EFBD7970EEE
:10008000006E002EFED7EF2EF3D7120011B002D073
:100090008C9601D08C8611B202D08C9801D08C88BD
:1000A00011B402D08C9A01D08C8A11B602D08C9CEB
:1000B00001D08C8C00008C8400D000D08C94120075
:1000C000126A000E83B6010E1212000E83B8010EE2
:1000D000006ED890003600501212000E83BA010E46
:1000E000006E00360036FC0E001600501212000E94
:1000F00083BC010E006E003600360036F80E001686
:100100000050121212C001F0120095869588958A4F
:10011000958C8C8200008C840000D2DF01C011F02D
:100120008C9400008C8400D0CBDF01C010F08C9444
:1001300095969598959A959C1138006EF00E00163C
:1001400000501010016EAAEF00F0959495909592D2
:100150008C90DBD701C010F001BEFBD70E5202E13C
:100160008C9001D08C8000008C9200008C940F3811
:10017000106E0F0E101610C011F088DF0F500F0B0D
:10018000106E116E83DF1200280E076E0C0E086EC3
:10019000010E096E060E0A6E8C948C908C929596C8
:1001A0009598959A959C9594959095920F0E0B6EB7
:1001B0005ADF010E066E0650030808E3030E116EA7
:1001C00065DF050E0B6E4FDF062AF5D7020E116EA6
:1001D0005DDF050E0B6E47DF066A065003080FE36E
:1001E000036A0650070FE96E000E0320EA6EEFCF98
:1001F0000BF00E6A0BC00FF0A8DF062AEED74BEF0C
:1002000001F00B2C01D003D0400E0C6E01D00C6A13
:10021000010E0A5C0C260C5080090D6E0E6A0F6EE2
:1002200094DF12000950070A07E00B0A0AE0060AE9
:1002300010E0020A14E018D0010E0A6E0B6EE1DF26
:1002400018D00E6A010E0F6E80DF020E0B6E0BDFF0
:1002500010D0010E0A6E020E0B6ED3DF0AD00E6AAA
:10026000100E0F6E72DF05D0010E0E6E09C00FF07A
:100270006CDF12000900F5520CE0F6CF07F0F7CF63
:1002800008F0F5CF09F0CEDF07C0F6FF08C0F7FF92
:10029000F1D7120079D70C0E096EC4DF040E0A6E76
:1002A000020E0B6EAEDF040EF66E000EF76EE2DF8E
:1002B000020E066E960E0B6ED6DE062EFBD70E0EC7
:1002C0000A6E020E0B6E9DDF120EF66E000EF76EBA
:1002D000D1DF020E066E960E0B6EC5DE062EFBD724
:1002E0000F0E0A6E020E0B6E8CDF140EF66E000EF1
:1002F000F76EC0DF020E066E960E0B6EB4DE062E93
:10030000FBD7100E0A6E020E0B6E7BDF160EF66E1A
:10031000000EF76EAFDF020E066E960E0B6EA3DEBA
:10032000062EFBD70C0E096E7DDF020E0A6E0B6ED9
:1003300068DF180EF66E000EF76E9CDFEAEF01F034
:100340000C0E096E6FDF020E0A6E0B6E5ADF400E46
:10035000F66E000EF76E8EDFE80E066E926A060EDF
:10036000896E06C00BF07FDE81B619D0926A050E49
:10037000896E06C00BF077DE81B611D0926A090E45
:10038000896E06C00BF06FDE81B609D0926A0A0E44
:10039000896E06C00BF067DE81B601D0DDD7080E8E
:1003A000076EFA0E0B6E5FDE072EFBD7FCEF01F037
:1003B000F86AD09E700ED36ED350C150C00B0F0997
:1003C000C16E070EB46E046A056A8C6A8B6A000EF1
:1003D000946E60D781AA19D0040E0A6E020E0B6EBD
:1003E00010DF81AC0AD00C0E096E1CDF500EF66EC9
:1003F000000EF76E3FDFA4D708D00C0E096E12DF97
:100400005A0EF66E000EF76E35DFC80E0B6E2BDE41
:04041000E1D703002D
:020000040030CA
:0E0000003FC8381E0007A1000FC00FE00F40E0
:00000001FF
;PIC18F4550
;CRC=C92D  CREATED="22-nov-20 17:07"
