:10000000B4EF01F0436172726567616E646F202E18
:1000100000002E002E002E00436C6971756520656E
:100020006D20696E696369617200496E6963696117
:10003000646F0000466563686120506F72746100F0
:10004000EA6A0B0EE96EEF500DE0020E016E006AD7
:10005000002EFED7012EFBD7970E006E002EFED786
:10006000EF2EF3D7120010B002D08C9601D08C8600
:1000700010B202D08C9801D08C8810B402D08C9A27
:1000800001D08C8A10B602D08C9C01D08C8C0000E0
:100090008C8400D000D08C941200116A000E83B6BC
:1000A000010E1112000E83B8010E006ED8900036BA
:1000B00000501112000E83BA010E006E0036003699
:1000C000FC0E001600501112000E83BC010E006ED3
:1000D000003600360036F80E00160050111211C01E
:1000E00001F0120095869588958A958C8C82000087
:1000F0008C840000D2DF01C010F08C9400008C844E
:1001000000D0CBDF01C00FF08C9495969598959A0E
:10011000959C1038006EF00E001600500F10016E06
:1001200097EF00F09594959095928C90DBD701C055
:100130000FF001BEFBD70D5202E18C9001D08C80F4
:1001400000008C9200008C940E380F6E0F0E0F166C
:100150000FC010F088DF0E500F0B0F6E106E83DF94
:100160001200280E076E0C0E086E010E096E060EA8
:100170000A6E8C948C908C9295969598959A959CF5
:100180009594959095920F0E0B6E5ADF010E066EA8
:100190000650030808E3030E106E65DF050E0B6EB4
:1001A0004FDF062AF5D7020E106E5DDF050E0B6ECF
:1001B00047DF066A065003080FE3036A0650070F7D
:1001C000E96E000E0320EA6EEFCF0BF00D6A0BC054
:1001D0000EF0A8DF062AEED738EF01F00A2C01D086
:1001E00003D0400E0B6E01D00B6A010E095C0B268A
:1001F0000B5080090C6E0D6A0E6E94DF12000850D1
:10020000070A07E00B0A0AE0060A10E0020A14E0F7
:1002100018D0010E096E0A6EE1DF18D00D6A010ECA
:100220000E6E80DF020E0B6E0BDF10D0010E096E1A
:10023000020E0A6ED3DF0AD00D6A100E0E6E72DF48
:1002400005D0010E0D6E08C00EF06CDF1200090023
:10025000F5520CE0F6CF06F0F7CF07F0F5CF08F037
:10026000CEDF06C0F6FF07C0F7FFF1D7120079D73F
:100270000C0E086EC4DF040E096E020E0A6EAEDFAD
:10028000040EF66E000EF76EE2DF020E066E960E9C
:100290000B6ED6DE062EFBD70E0E096E020E0A6E10
:1002A0009DDF120EF66E000EF76ED1DF020E066EA7
:1002B000960E0B6EC5DE062EFBD70F0E096E020ED4
:1002C0000A6E8CDF140EF66E000EF76EC0DF020EA3
:1002D000066E960E0B6EB4DE062EFBD7100E096E60
:1002E000020E0A6E7BDF160EF66E000EF76EAFDFA3
:1002F000020E066E960E0B6EA3DE062EFBD70C0EBC
:10030000086E7DDF020E096E0A6E68DF180EF66E4B
:10031000000EF76E9CDFC8EF01F0066A0650020877
:100320001AE3946A130E8B6E640E0B6E89DE946A68
:10033000160E8B6E640E0B6E83DE946A1C0E8B6E33
:10034000640E0B6E7DDE946A190E8B6E640E0B6E5E
:1003500077DE062AE3D7040E076EFA0E0B6E70DE08
:10036000072EFBD7DCEF01F0F86AD09E700ED36E3B
:10037000D350C150C00B0F09C16E070EB46E046A92
:10038000056A8A6A8C6A946A8B6A000E946E6FD7CB
:1003900081AA1BD0040E096E020E0A6E1FDF81AC0B
:1003A0000CD00C0E086E2BDF2A0EF66E000EF76EC8
:1003B0004EDF949A8B8AB1D708D00C0E086E1FDFDF
:1003C000340EF66E000EF76E42DFC80E0B6E38DE8E
:0403D000DFD7030070
:020000040030CA
:0E0000003FC8381E0007A1000FC00FE00F40E0
:00000001FF
;PIC18F4550
;CRC=DD22  CREATED="15-nov-20 22:13"
